:020000040800F2
:1000000074850020C1170008BD170008BD1700083F
:10001000BD170008BD170008BD170008000000004C
:10002000000000000000000000000000BD170008F4
:10003000BD17000800000000BD170008BD1700082C
:10004000BD170008BD170008BD170008BD17000840
:10005000BD170008BD170008BD170008BD17000830
:10006000BD170008BD170008BD170008C509000826
:1000700001160008BD170008BD170008BD170008CD
:10008000BD170008BD170008BD170008BD17000800
:10009000BD170008BD170008BD170008BD170008F0
:1000A000BD170008BD170008BD170008BD170008E0
:1000B000BD170008BD170008BD170008BD170008D0
:1000C000BD170008BD170008BD170008BD170008C0
:1000D000BD170008BD170008BD170008FD15000872
:1000E000BD170008BD170008BD170008BD170008A0
:1000F000BD170008BD170008BD170008C10900089A
:10010000BD170008BD170008BD170008C909000881
:10011000BD170008BD170008BD170008BD1700086F
:10012000BD170008BD170008BD170008BD1700085F
:10013000BD170008BD170008BD170008BD1700084F
:10014000BD170008BD170008BD170008BD1700083F
:10015000BD170008BD170008BD170008BD1700082F
:10016000BD170008BD170008BD170008BD1700081F
:10017000BD170008BD170008BD170008BD1700080F
:08018000BD170008BD170008BF
:1001880010B5054C237833B9044B13B10448AFF3C9
:1001980000800123237010BD788500200000000036
:1001A80050350008084B10B51BB108490848AFF393
:1001B80000800848036803B910BD074B002BFBD02B
:1001C800BDE81040184700BF000000007C850020F3
:1001D800503500087405002000000000154B002B66
:1001E80008BF134B9D46A3F5803A00218B460F4666
:1001F8001348144A121A02F0F9FF0F4B002B00D0D3
:1002080098470E4B002B00D098470020002104008F
:100218000D000D48002802D00C4803F0ABF802F09E
:10022800BDFF2000290002F08BFF02F0A7FF00BFEE
:1002380000000800000000000000000000000000AE
:1002480078850020949000207D33000889330008C9
:100258002DE9F041012196B0DFF80C813E4F3F4E69
:100268004FF4802002F094FA01214FF4001000248A
:1002780002F064FA0125022340464FF4407201A9B6
:100288008DF808308DF8093001928DF80A408DF804
:100298000B5001F03FFE40460722082101F0CCFE3A
:1002A80040460722092101F0C7FE47F6122203A99A
:1002B800384604230392ADF81630ADF81040ADF877
:1002C8001240ADF81440ADF8184002F083FD0C233D
:1002D80068468DF800308DF801408DF802408DF8A1
:1002E800035001F09FFA4FF4A06001F091FA2946FB
:1002F800384602F0F5FD304601F0DCFB4FF00063B4
:10030800174907930991174A08924FF480634FF4ED
:1003180080714FF0400830464FF400320D93109131
:10032800032307A9139311920A940C940E940F9423
:10033800129414941594CDF82C8001F053FC2A469D
:100348004146384602F09CFE2946304601F088FCBA
:1003580016B0BDE8F08100BF0048004028600240A8
:10036800D88B002004480040000C024008B508481B
:1003780001F096FC074A1388984206D028BF4033FC
:100388001B1A9BB21080D8B208BD002008BD00BF60
:100398002860024004000020002838D02DE9F843E6
:1003A8001B4D1C4E81462C4600274FF0010819E0D2
:1003B800627802F0F002802A1BD0902A07D1A27836
:1003C800CAB1A770E078E1B100F0E4FD2378013309
:1003D800DBB2402B09F1FF3014BF2B702F7010F0E7
:1003E800FF0912D02B78F15C0A06E1D56170A7707D
:1003F800EDE7A2781AB984F80280E170E7E7E078BF
:10040800A77000F043FE2378E1E7BDE8F883704762
:1004180094850020D88B002008B5002210210648BA
:1004280001F0FEFD44F6FF73013BFDD101221021CE
:10043800014801F0F5FD08BD000C024070B5114CF3
:10044800114B6168A06826681D6801F055FC80B9E9
:10045800E168A0680B4C01F04FFC00B970BD314653
:10046800284601F0B5F8E168A068BDE8704001F0E1
:10047800C3BC3146284601F09DF86168A06801F0C8
:10048800BBFCE5E7080000201890002070B58D4CF3
:100498004FF4961306460D46236105E023695A1E5C
:1004A8002261002B00F001814FF40031864801F0F1
:1004B800C9FF0028F2D10121834801F09DFE4FF4C5
:1004C8008053236105E023695A1E2261002B00F046
:1004D800EC807E497C4801F09FFF0028F3D0002281
:1004E8009421794801F0A4FE4FF48053236105E07C
:1004F80023695A1E2261002B00F0D7807449724884
:1005080001F08AFF0028F3D031466F4801F01AFF46
:100518004FF48053236105E023695A1E2261002BA2
:1005280000F0C3806B49684801F076FF0028F3D0DB
:100538002946654801F006FF4FF49613236105E04C
:1005480023695A1E2261002B00F0B98062495E4877
:1005580001F078FF0028F3D001215B4801F05AFE32
:100568004FF49613236105E023695A1E2261002B7C
:1005780000F09F804FF40031534801F063FF0028DA
:10058800F2D10121504801F037FE4FF48053236126
:1005980005E023695A1E2261002B00F08A804B492E
:1005A800494801F039FF0028F3D000229421464839
:1005B80001F03EFE4FF48053236104E023695A1E84
:1005C8002261002B75D042493F4801F025FF0028E1
:1005D800F4D031463C4801F0B5FE4FF48053236116
:1005E80004E023695A1E2261002B62D03A4936483A
:1005F80001F028FF0028F4D00121334801F0FCFD68
:100608004FF48053236104E023695A1E2261002BB2
:100618004FD02E492C4801F0FFFE0028F4D00122CB
:100628009421294801F004FE4FF48053236104E02B
:1006380023695A1E2261002B3BD0234E274930469E
:1006480001F000FF0028F3D00021304601F0FCFD46
:1006580030460121338B01F0DDFD4FF480532361D7
:1006680003E023695A1E22611BB31D49164801F095
:10067800E9FE0028F5D0144801F066FE4FF48053D7
:1006880006462361104A03E02369591E216183B19C
:1006980013889B05F8D401210B4801F0D5FD0A48C1
:1006A800104901F0EBFE304605E0BDE8704000F06F
:1006B8009FBF00F09DFF281A18BF012070BD00F0F1
:1006C80097FF43E7080000200054004001000300A2
:1006D80082000700800007000400001002000010DC
:1006E8004000001000040010193038B5C4B221468B
:1006F8002020FFF7CBFE214605462120FFF7C6FE46
:10070800284438BD1B4BF0B458615A69012A1BD0E4
:10071800022801D0F0BC70471749184A9A60002691
:100728004FF400120E609A61154F164D164C17487B
:100738001749184A0B26DF611E625D60DC6058624B
:100748009962DA62F0BC70470B49134A9A6000203C
:100758004FF4001208609A61104F2F264FF0205571
:100768004FF010544FF001504FF008514FF0045221
:10077800E1E700BF080000209885002010600240D3
:100788000C740040200000101000001001008010C0
:100798000800001004008010B86002400C3C0040C3
:1007A8002DE9F0412F4E304D336ADFF8C4802F4FCA
:1007B80082B0002468468DF800308DF801408DF82D
:1007C80002408DF8034001F02DF82146B06801F091
:1007D80047FAB06801F06EF9FFF71EFE012102200A
:1007E800FFF754FE694628464FF4A05300938DF84E
:1007F80004408DF805408DF806408DF8074001F05B
:1008080089FB102369464046009301F083FB22468A
:100818004046042101F010FC224628460A2101F036
:100828000BFC224628460C2101F006FC8023694671
:100838002846009301F06EFB06222846072101F0A6
:10084800FBFB2146384602F07FF9384602F088F86B
:1008580021464FF4004001F09BFF204602B0BDE85E
:10086800F08100BF0800002000080240003C004062
:100878000000024070B520B3204D04202979FFF70D
:1008880005FE297904460420FFF700FE9E21044452
:100898000220FFF7FBFD241801D0012070BD184E7F
:1008A80001223046022102F0EDF9164B0121986829
:1008B80001F0D6F9B08B00F4806085B2C5B120464E
:1008C80070BDFF210420FFF7E1FD0121044602204D
:1008D800FFF7DCFD2418E0D122460221084802F087
:1008E800D1F9084B2146986801F0BAF9204670BD45
:1008F8003046012102F028F9284670BD988500206D
:10090800003C00400800002070B5FF210446042088
:10091800FFF7BCFD022C26D09F210220FFF7B6FD71
:1009280040F6FF720446013AFDD11021114801F04A
:1009380077FB0CB1012070BD0F4D2146A86801F06E
:100948008FF96E68EA686B6AA96AA868324313432C
:10095800194301F051FA2146084802F0F5F82B6BCB
:100968002B60204670BD20469F21FFF78FFD04466F
:10097800DFE700BF000C024008000020003C0040F8
:10098800642809D8054BC0EB002083FB0023C0175F
:10099800C0EB6310C0B2A7E66420A5E61F85EB5143
:1009A800012803D0034B042019796FE5FF210420A7
:1009B8006CE500BF9885002040E500BF3EE500BF1C
:1009C80008B502210B4802F077F958B10A4B5B6968
:1009D800022B08D000F00AFEBDE808400146054891
:1009E80002F030B908BD00F001FE0146042000F015
:1009F800D7FFEFE7003C0040080000200B4B10B584
:100A08000B4C98601961A0686269194601F0EAF810
:100A1800A068012101F024F90648838B5B0500D505
:100A280010BD0121BDE8104002F08EB8589000209A
:100A380008000020003C0040F8B54FF6FF75A942B9
:100A4800094F0C4628BF294606463C63FFF7D6FFE8
:100A58003A6B064B954228BF1546641B06EB4505C5
:100A68003C601D600020F8BD0800002018900020A0
:100A780010B5012186B0104801F060FE01214FF049
:100A8800005001F085FE00241022032369460B481C
:100A980000928DF804308DF8074001F03BFA2046AB
:100AA80002A902940394059400F024FF2046012132
:100AB80000F03EFF06B010BD01002000000002401B
:100AC8002DE9F047642988B0174600F20E81BB4B28
:100AD800C1EB012183FB0123C917C1EB63115FFA45
:100AE80081F84FF0100A0121082001F027FE0226A4
:100AF80000244FF001090DEB0A01B148CDF810A010
:100B08008DF814908DF815608DF816408DF8174003
:100B180001F000FA4946072001F010FE4FF4107367
:100B28000DEB0A01A74804938DF814608DF8156041
:100B38008DF816908DF8174001F0ECF90422062183
:100B4800A048A14D01F078FA042209219D4801F03E
:100B580073FA4FF4A0530DEB0A019C4804938DF8E7
:100B680014608DF815608DF816408DF8174001F067
:100B7800D1F906220421964801F05EFA06220A21DC
:100B8800924801F059FA6B69B34200F0D2800DEB3C
:100B98000A018F48CDF810A001F0BCF906220C21FB
:100BA8008A4801F049FA802302244FF0000904A979
:100BB800864804938DF814408DF815408DF81690EA
:100BC8008DF8179001F0A6F9062207217F48814E7B
:100BD80001F032FAFFF720FC01214FF4001001F078
:100BE800D7FD7D4801F03EFA4BF6FF7233234FF4F0
:100BF8008061ADF81620ADF818304FF48042774B7D
:100C0800ADF81A107448ADF81C2001210493ADF812
:100C1800149001F0E3FA04A96F4801F059FA20464C
:100C28000121FFF733FCAF2104460420FFF72EFC17
:100C3800AF230444812105203371FFF727FC0421E9
:100C480004440620FFF722FC04444046FFF74CFD0D
:100C58006B69022B00F091809E210220FFF716FCA1
:100C6800002104440A20FFF711FC6B69022B04449D
:100C780004D004210E20FFF709FC0444002127209A
:100C8800FFF704FC0F2104441F20FFF7FFFB0A2194
:100C980004441A20FFF7FAFB0A2104441B20FFF73B
:100CA800F5FB012104444FF4004001F071FD4C486C
:100CB80001F056FE4FF000084FF4007369464848AB
:100CC800ADF80030ADF806300297ADF80280ADF807
:100CD8000480ADF80C8001F099FE6B69022B38D0C6
:100CE80034B1012008B0BDE8F0874FF06408F8E699
:100CF8006F69DFF8D480012F74D06A69012A57D050
:100D0800FFF7B6FE01227121354801F0C5FF002327
:100D18003321012204A88DF810108DF811308DF8B8
:100D280012308DF8132000F07DFD002008B0BDE8DA
:100D3800F0874946484601F001FD032304A92448E9
:100D4800CDF810A08DF817408DF8143001F0E2F8B6
:100D580029E701214FF0005001F01AFD04A940468F
:100D6800CDF81080CDF81480CDF81C8000F0C2FDBD
:100D78004046012100F0DCFDB2E701210820FFF721
:100D880085FB012180460920FFF780FBC0218044B4
:100D98000E20FFF77BFB4444494604441420FFF728
:100DA80075FB494604441520FFF770FB044453E7DC
:100DB80002210B4801F066FFB7E700BF1F85EB5122
:100DC800000C024000040240080000200008024015
:100DD800000002409885002000540040A0860100D1
:100DE800003C00403946D8F8180001F0A7FC21461D
:100DF800D8F8080000F034FFD8F8080000F05AFED0
:100E08001F4B3268D8F81C101A60596040224FF600
:100E1800FE71DA6019614FF480624FF400619A61E3
:100E2800D9614FF400524FF480711A625962D8F8B0
:100E380008009C6019464FF440325C61DC621C6318
:100E48005C639C639A6200F0CDFE3A46D8F80800CD
:100E5800102100F06FFFD8F808003A46082100F08A
:100E680069FFD8F820308DF8103004A88DF81140AB
:100E78008DF812408DF8137000F0D4FC3DE700BFE8
:100E8800589000202DE9F041154CDFF858C004F1C6
:100E9800160E04F12A0704F13E0604F1520500205B
:100EA80034F9022F0CEB82031CF8228059789A78C7
:100EB800DB784FEAC818C901D201DB01013008F11B
:100EC800020802310232023309282EF8028F27F86D
:100ED800021F26F8022F25F8023FE1D1BDE8F08174
:100EE8009E850020000100202748284B70B500226D
:100EF8004FF4D4414FF480464FF4C0454FF4944426
:100F0800A0F85010868205858487A0F86420A0F890
:100F18006620A0F86820A0F86A20A0F86C20A0F845
:100F28006E20A0F8702042678267A0F87C20A0F8A5
:100F38007E2003F5806123F8022F8B424FF00004D6
:100F4800F9D10823048144818481C4810482038007
:100F580043808380C380FFF795FF0D4A02F5B67181
:100F680023460E4602F5367402F244404FF480459B
:100F780042F8043FB24241F8045F44F8043F40F8A5
:100F8800043FF5D170BD00BFA0850020168C00205D
:100F98001C860020F8B5A0F10C03DAB2082A044632
:100FA80012D8364DB5F87C20002A4FD0B5F87E20EF
:100FB800334825F812304FF400410023A5F87C305F
:100FC80001F02CF8FFF75EFFA4F11803482B3CD87A
:100FD8002A4EB6F8663001331BB2012BA6F86630EC
:100FE800A5B240D0183DADB26FF00B032B44254F8E
:100FF80025481BB2002BBC464FF000011DDA0C330C
:101008001BB2002BFBDB30F902EF06EB830307EB87
:101018008E0ED3F8C444DEF81420013122444FEA7E
:10102800A20E0929C3F8C424C3F858E30DD03CF92B
:10103800023F2B441BB2002BE1DB5A2BE3DD0C3BB8
:101048009AB25A2A13B2FAD8DDE7F8BD4FF4004134
:101058000B48A5F87E3000F0DFFFB5F87C3001338F
:10106800A5F87C30AEE7A5F10C024FF4803386F882
:101078003246A6F83026B367B4E700BFA085002043
:10108800000C0240583400089E8500202DE9F043EA
:10109800A0F11806F3B2482B45D8B6B26FF00B038F
:1010A8003344DFF890E0214C1BB20021002B81462D
:1010B800754604F102078C461CDA0C331BB2002B70
:1010C800FBDB34F9028F07EB83030EEB8808D3F8B8
:1010D800C404D8F814200131821A54BFC3F8C424B8
:1010E800C3F8C4C409290DD035F9023F33441BB2F3
:1010F800002BE2DB5A2BE4DD0C3B9AB25A2A13B2DE
:10110800FAD8DEE7B7F86630094A013B1BB2002B74
:10111800B8BF0023A2F8663097F93236044A9945D9
:1011280004BF00239367BDE8F08300BF9E850020BD
:10113800A08500205834000810B50C4CB4F8643071
:10114800DA070CD500F09CF9B4F86430074A01338B
:101158009BB24F2B88BF0023A2F8643010BD5B08F8
:1011680004EB4303988A00F071F9EDE7A0850020AD
:101178002DE9F04F2DED028B83B00446FFF7DCFF1D
:10118800604BDFED618A9FED618A04F5807203EBA5
:10119800420203EB440301920093DFF87CC1DFF8BD
:1011A8007CB10026CCF8E062B0460CF5B67AACF516
:1011B800B47EACF53577E1468C2001E03BF9020FAF
:1011C800DEF8004059F8043F5AF8042F3D6800FB48
:1011D80004F1C3EB4313A5EBE13113445B1101FBAD
:1011E80000F0013601FB03F204EBE0345B2E4CF80F
:1011F800043F08EB22384EF8044B47F8041BDDD1B6
:10120800434B4348B3F9302641495B6F896FC0F8B7
:10121800348600EB8202C3EB43130B44D2F88020E0
:101228005B1102FB03F2013943674FEAA24365D41D
:101238008167374A374843444FF40051C2F834367F
:1012480000F0ECFE324BD3F8342602F5EA43303393
:101258004EF660218B4248D807EE902AF8EEE77ADE
:10126800B3EE0B6AC7EEA86A294B294AB3F8703067
:10127800274902EB4302013303F00203A1F870305F
:10128800F0EE467AF2EE025AE6EEA67A66EEA55A35
:1012980026EE887AA6EEA56A67EE277A87EE867A22
:1012A800FDEEC77A17EE903AA2F868300B46B1F90E
:1012B8006800B1F96A10B3F96C20B3F96E300144D3
:1012C8000A441344124900989B101AB2C1F83436E4
:1012D800019B02804280021D9A4200927FF45DAF1A
:1012E80003B0BDEC028BBDE8F08F4FF40051094804
:1012F80000F092FE064BD3F83426ADE704490022ED
:101308008A6796E7188C002000606A470060EA4602
:10131800A0850020000C0240F488002090340008CA
:10132800002882B044F620610ADD019100E000BF88
:10133800019B5A1E002B0192F9DC01380028F4DCCD
:1013480002B07047154B10B45A69154C22F00202CE
:101358005A615A6983B0C00142F0080244F620611C
:101368005A616061019100E000BF019B5A1E002B89
:101378000192F9DC094A536944F6206123F0080315
:101388005361009100E000BF009B5A1E002B0092A1
:10139800F9DC03B05DF8044B704700BF000C024055
:1013A80000100240154B10B45A69154C42F0020265
:1013B8005A615A6983B0C00142F0080244F62061BC
:1013C8005A616061019100E000BF019B5A1E002B29
:1013D8000192F9DC094A536944F6206123F00803B5
:1013E8005361009100E000BF009B5A1E002B009241
:1013F800F9DC03B05DF8044B704700BF000C0240F5
:1014080000100240064B07495A6922F002025A614D
:101418005A69C00142F008025A614861704700BF2A
:10142800000C024000100240064B07495A6942F07E
:1014380002025A615A69C00142F008025A614861C1
:10144800704700BF000C0240001002400A4B0B49D5
:101458005A6922F0020210B45A615A6900F0020473
:1014680022435A615A695DF8044B00F4FF4042F088
:1014780008025A6148617047000C0240001002409F
:10148800024A536923F0080353617047000C024075
:1014980038B54020074CFFF755FF04F1400514F814
:1014A800010FFFF77FFFAC42F9D18020BDE838403B
:1014B800FFF748BF3B00002000B5214A136B43F0FB
:1014C800180383B01363BFF34F8F1E491E4B1F4889
:1014D8001F4A08604FF4FA711A6044F620600190C0
:1014E80000E000BF019B5A1E002B0192F9DC013974
:1014F800F5D13820FFF726FF042144F6206000903C
:1015080000E000BF009B5A1E002B0092F9DC013955
:10151800F5D13820FFF716FF3820FFF713FF082012
:10152800FFF710FF0120FFF70DFF0620FFF70AFF66
:101538000C20FFF707FFFFF7ABFF03B05DF804FBD4
:1015480000380240000C0240001002404400000431
:101558000040551570B5012182B0082001F0EEF861
:101568000121084601F0EAF800244FF470430126EF
:10157800694603250D4800938DF804608DF80640F0
:101588008DF807408DF8055000F0C4FC69460848FE
:1015980000968DF804408DF806408DF805508DF8BA
:1015A800074000F0B7FC02B070BD00BF000C02405D
:1015B8000000024008B505484FF4805100F02CFDAA
:1015C8004FF48070BDE80840FFF7D2BD000C024020
:1015D80008B505484FF4805100F020FD0020BDE813
:1015E8000840FFF7C5BD00BF000C0240002070474F
:1015F80000207047704700BF08B50649064800F04C
:10160800B9FB00B908BD03490348BDE8084000F02C
:10161800D9BB00BF00880010286002404149424BF6
:10162800D1F88820414842F47002C1F888201A682D
:10163800002142F001021A6099601A6822F084724F
:1016480022F480321A6058601A6882B022F480222C
:101658001A60D960009101911A6842F480321A60C8
:101668001A4603E0009BB3F5A06F09D0136803F492
:1016780000330193009B01330093019B002BF1D0B1
:10168800294B1B6813F4003318BF01230193019BF6
:10169800012B14D0244A2649936823F4000393604D
:1016A800C2F88410136843F08063136013681B0149
:1016B800FCD51C4B4FF000629A6002B070471A4B81
:1016C8001C491A6C1C4842F080521A640A6842F499
:1016D80080420A609A689A609A6842F460429A6006
:1016E8009A6842F4E0529A6058601A6842F0807230
:1016F8001A601A4611680C4B8901FBD50F4A40F253
:10170800056111609A6822F003029A609A6842F0B3
:1017180002029A601A46936803F00C03082BFAD168
:10172800B8E700BF00ED00E00038024010300024A8
:10173800804000300070004008544007003C0240E0
:101748001848836803F00C03042B28D0082B09D011
:10175800154B144A15499268C2F303128A5CD340A8
:101768000B6170474368416813F4800F436818BFE2
:101778000F4801F03F020CBF0B49B0FBF2F1C3F375
:10178800881308BFB1FBF2F101FB03F2054B5B685C
:10179800C3F3014301335B00B2FBF3F3D9E7044B16
:1017A800D7E700BF003802400024F40024010020DD
:1017B80000127A00FEE700BF08B5104A104B9A42A3
:1017C8000CD2D043184420F003000E4B04301844C8
:1017D80053F8041B42F8041B8342F9D10A480B4909
:1017E8004FF000028842B8BF40F8042BFADBFFF73D
:1017F80015FFBDE8084001F0A3BC00BF00000020B1
:101808007405002080350008788500209490002019
:1018180040F0BF60024B40F40030D860704700BF12
:1018280000ED00E0C3785BB9037818485A09203204
:1018380003F01F03012101FA03F340F82230704737
:10184800134BF0B4D9684778827804780F4EC943AF
:10185800C1F30221C1F10405EDB20F2307FA05F522
:101868000B41EDB213402B4304F1604202F5614293
:101878001B01DBB282F800330378012203F01F0159
:101888005B098A4046F82320F0BC704700E100E07D
:1018980000ED00E021F0604121F07F01014B084399
:1018A8009860704700ED00E0044A136919B923EA0B
:1018B80000001061704718431061704700ED00E0A8
:1018C800044A136804280CBF43F0040323F00403FC
:1018D8001360704710E000E008B501214FF0005098
:1018E80000F09CFF00214FF00050BDE8084000F0D8
:1018F80095BF00BFF0B40F684E68094D8C68CA6880
:101908002B6847EA06010C4340F6FE7122438140EA
:1019180023EA010302FA00F003432B60F0BC70478E
:10192800007400400023036043608360C360704715
:1019380041B9084901220B6802FA00F023EA0000C5
:1019480008607047034901220B6802FA00F0184347
:10195800086070470074004049B9094900094B689C
:10196800012202FA00F023EA0000486070470449A7
:1019780000094B68012202FA00F0184348607047DA
:1019880000740040054A536818B923F003035360F4
:10199800704743F003035360704700BF0074004072
:1019A80082B00022054B01920193019B0833184431
:1019B8000190019B196002B0704700BF007400409D
:1019C80082B00022054B01920193019B1433184405
:1019D8000190019B196002B0704700BF007400407D
:1019E8000828044B0CBF42EA012242EA0142C250D5
:1019F800704700BF2074004082B00022064B01925D
:101A08000193019B2C3303EB90000190019B186814
:101A180080B202B0704700BF0074004049B909495C
:101A28004FF480520B6802FA00F023EA00000860C5
:101A3800704704494FF480520B6802FA00F01843CB
:101A4800086070470074004032B9064A1368814044
:101A580023EA010111607047024A13688140194363
:101A68001160704700740040FFF7EEBF034B5B6BDB
:101A78008140194214BF01200020704700740040C3
:101A8800014B81405963704700740040054B1A6848
:101A98005B6B814011EA030003D00A4214BF0120A6
:101AA8000020704700740040014B81405963704723
:101AB8000074004002683749002310B422F0010284
:101AC800212488420260036043608360C36003612D
:101AD80044614DD0304B984235D0304B984239D084
:101AE8002F4B98423DD02F4B984247D02E4B9842CF
:101AF80048D02E4B98421DD02D4B98421ED02D4BCE
:101B0800984243D02C4B98421DD02C4B984221D060
:101B18002B4B984225D02B4B98422FD02A4B9842DA
:101B280030D02A4B984205D0294B984206D05DF810
:101B3800044B7047274A43F8942CF8E74FF03D527E
:101B480043F8AC2CF3E74FF4746243F8202C5DF8AB
:101B5800044B70474FF4741243F8382C5DF8044B6B
:101B680070474FF0746243F8502C5DF8044B70478F
:101B7800194B5DF8044B3D229A607047174A43F8A9
:101B8800642CD4E7164A43F87C2CD0E73D2243F86E
:101B9800082CCCE7106002402860024040600240F8
:101BA800586002407060024088600240A0600240B5
:101BB800B860024010640240286402404064024059
:101BC800586402407064024088640240A064024085
:101BD800B864024000003D20006002403D00002043
:101BE800400F002001F11802F0B48CCACD680E68CD
:101BF8004C692E43264316431E434A6A8B6A4D6B33
:101C08008C6B3E4316431E430B4A0368CF6A354329
:101C18002C431A40224302600B6B42690D694C68E1
:101C280089683B4322F0070213434361456084609F
:101C3800C160F0BC704700BF3F801CF00023036008
:101C480043608360C360036143618361C36103626E
:101C580043628362C362036343638363704700BF65
:101C6800036819B923F001030360704743F00103C7
:101C780003607047036819B923F400430360704791
:101C880043F4004303607047036819B923F0200345
:101C98000360704743F0200303607047416070475A
:101CA800406880B2704700BF036822B923F400235C
:101CB80003600161704743F40023036001617047CA
:101CC800036819B923F480230360704743F4802321
:101CD800036070470AB9C16070470161704700BF6F
:101CE8000068C0F3C0407047006800F0010070470A
:101CF800406900F0380070470B4B0C4A10B40C4C8C
:101D0800A04294BF184610468B004CBF4368036836
:101D18005DF8044B21F0F02121F08211194214BF23
:101D280001200020704700BF0060024000640240AC
:101D38000F6402400B060CD54369AAB143F0800337
:101D4800802943610FD0036801F01E011943016027
:101D58007047802907D0002AF5D1036801F01E01D9
:101D680023EA01010160704723F080038029436161
:101D7800F3D1704770B4104A104E114C21F0F02383
:101D880023F0C315B04298BF14468DB1006800F027
:101D98001E0000EAD12289004CBF6068206823F049
:101DA8008213184002D0101C18BF012070BC704765
:101DB800406900F08002EEE7006002400F640240D4
:101DC8000064024010B4094B094C0A4AA04294BF6F
:101DD8001846104611F0005F21F0F02121F0821121
:101DE80014BFC16081605DF8044B70470060024019
:101DF8000F64024000640240FFF7E4BF08B53C4BA3
:101E0800984224D03B4B98422BD03B4B984232D03F
:101E18003A4B984239D03A4B984240D0394B984285
:101E280047D0394B98424ED0384B984255D0384B12
:101E3800984200D008BD01214FF4807000F0C4FC26
:101E480000214FF48070BDE8084000F0BDBC0121BE
:101E5800084600F0B9FC00210120BDE8084000F068
:101E6800B3BC0121022000F0AFFC00210220BDE834
:101E7800084000F0A9BC0121042000F0A5FC0021C5
:101E88000420BDE8084000F09FBC0121082000F0B4
:101E98009BFC00210820BDE8084000F095BC01210A
:101EA800102000F091FC00211020BDE8084000F04F
:101EB8008BBC0121202000F087FC00212020BDE8F8
:101EC800084000F081BC0121402000F07DFC002189
:101ED8004020BDE8084000F077BC0121802000F0D8
:101EE80073FC00218020BDE8084000F06DBC00BFF5
:101EF800000002400004024000080240000C0240BA
:101F0800001002400014024000180240001C024069
:101F18000020024000222DE9F0471346D1F800E0E6
:101F280001274FF0030C04E00133102B02F10202E9
:101F380029D007FA03F434EA0E05F5D1D0F8008069
:101F48000E790CFA02F5ED4308EA0508C0F800809E
:101F5800D0F8009006FA02FA013E4AEA0909012E71
:101F68000CFA02F8C0F800900FD9C568CC7925EAB8
:101F78000805C560C568944001332C43102BC46024
:101F880002F10202D5D1BDE8F087866891F8059084
:101F98003540856086688D7909FA02F949EA0606AE
:101FA8008660466826EA04044460466805FA03F435
:101FB800A4B234434460D8E700234FF6FF720260AE
:101FC800037143718371C371704700BF82B04FF4CE
:101FD80080330193019B0B430193019BC361C16152
:101FE800019BC361C3690193C369019302B0704740
:101FF8000369194214BF012000207047006980B2AC
:10200800704700BF4369194214BF01200020704780
:10201800406980B2704700BF0183704741837047B1
:102028000AB9418370470183704700BF4161704717
:102038004369594041617047CB0800EB830001F0C8
:10204800070110B48900046A0F238B4024EA0303B4
:102058000362036A5DF8044B8A4042EA03010162A5
:10206800704700BF08B5174B984212D0164B9842DC
:102078001BD0164B984200D008BD01214FF4000038
:1020880000F0CCFB00214FF40000BDE8084000F050
:10209800C5BB01214FF4001000F0C0FB00214FF434
:1020A8000010BDE8084000F0B9BB01214FF48000E2
:1020B80000F0B4FB00214FF48000BDE8084000F0B8
:1020C800ADBB00BF0054004000580040005C004019
:1020D800F0B5054685B068460E46AC8800F0B8FAFB
:1020E800029B32483268DFF8CCE0A0FB031024F0F2
:1020F8003F042404800C240C87B23C43AC8029881C
:1021080021F001010904090C7245298024D85200E4
:10211800B3FBF2F39BB2032B07F1010798BF04232B
:102128002F84AB832888B7887289B489318980B2B3
:1021380040F0010028802B8823F4816323F00203F8
:102148001B043A431B0C134344EA01029BB292B2AC
:102158002B802A8105B0F0BDF4884BF6FF718C42C4
:102168001DD002EB820202EB8202B3FBF2F39BB2B8
:1021780043F48043C3F30B020AB943F001034FF45D
:1021880096710B4C01FB00F284FB0201D217C2EBE3
:10219800A112013292B243F400432A84C1E702EB50
:1021A8004202B3FBF2F39BB2E4E700BF83DE1B43BA
:1021B800D34D6210A0860100002310B44BF6FF71C6
:1021C80041F288344FF480420460C1808281838068
:1021D800038143815DF8044B704700BF038829B928
:1021E80023F001031B041B0C038070479BB243F0D0
:1021F80001030380704700BF038829B923F4807363
:102208001B041B0C038070479BB243F4807303804C
:10221800704700BF038829B923F400731B041B0C03
:10222800038070479BB243F400730380704700BF7C
:1022380022B901F0FE0189B20182704741F0010123
:1022480089B20182704700BF038829B923F48063EB
:102258001B041B0C038070479BB243F4806303800C
:10226800704700BF83899BB201F0FE0123F0FE0393
:1022780019438181704700BF838929B923F001037D
:102288001B041B0C838170479BB243F001038381BD
:10229800704700BF038829B923F040031B041B0CB7
:1022A800038070479BB243F040030380704700BF30
:1022B800038819B9C3F30E03038070476FEA4343D9
:1022C8006FEA53439BB20380704700BF038829B16C
:1022D80023F080031B041B0C038070479BB243F060
:1022E80080030380704700BFB1F5804F838B05D012
:1022F80023F480431B041B0C838370479BB243F475
:1023080080438383704700BFB1F5005F038805D021
:1023180023F400531B041B0C038070479BB243F447
:1023280000530380704700BF038829B923F01003C6
:102338001B041B0C038070479BB243F010030380FF
:10234800704700BF01827047008AC0B2704700BF63
:10235800038829B923F480531B041B0C038070479E
:102368009BB243F480530380704700BFB1F5006F00
:10237800038805D023F400631B041B0C03807047FB
:102388009BB243F400630380704700BFFFF7EEBFC2
:10239800038829B923F020031B041B0C0380704712
:1023A8009BB243F020030380704700BF008BC0F34B
:1023B80007207047838829B923F400631B041B0C8A
:1023C800838070479BB243F400638380704700BFEB
:1023D800838829B923F480531B041B0C838070471E
:1023E8009BB243F480538380704700BF82B00023C0
:1023F80001930190019B19440191019B188880B2B7
:1024080002B0704783889BB21AB923EA0101818020
:102418007047194381807047838A008B9BB243EAD7
:10242800004321F07F4203EA0200401AB0FA80F02C
:1024380040097047838A028B98B240EA024020F034
:102448007F40704782B000230A0F009301930190E8
:102458000092009B21F07F4153B1019B14330193FB
:10246800019B1B68194214BF0120002002B070476D
:10247800019B1833090C0193F2E700BFC94389B2E5
:10248800818270478388808A80B208409BB206D0D8
:1024980003F4E06313EA114314BF012000207047DE
:1024A800C94389B2818270470A4B0B481A680021D8
:1024B80042F001021A6099601A6822F0847222F4CC
:1024C80080321A6058601A6822F480221A60D96033
:1024D800704700BF0038024010300024024B002231
:1024E8001A701870704700BF0238024082B000238B
:1024F8000A4A019302E0B3F5A06F08D0136813F4F9
:10250800003F019B03F101030193019BF3D0034BAF
:102518001868C0F3404002B0704700BF003802405E
:10252800034A136823F0F80343EAC00010607047B9
:1025380000380240014B1860704700BF0000474256
:10254800064B002201281A701A7005D0042802D1FF
:1025580005221A707047704718707047703802402B
:10256800014B1860704700BF800E474230B4029C90
:10257800064D40EA046001435B08013B41EA8212D0
:1025880042EA0340686030BC704700BF0038024030
:10259800014B1860704700BF600047420907034BB2
:1025A80041EA8010C3F88400704700BF0038024039
:1025B800014B1860704700BF68004742014B186024
:1025C800704700BF4C004742034A936823F0EC630E
:1025D800194308439060704700380240034A9368E3
:1025E80023F078431943084390607047003802404D
:1025F800034A936823F0030318439060704700BFB1
:1026080000380240024B986800F00C00704700BF89
:1026180000380240034A936823F0F003184390609F
:10262800704700BF00380240034A936823F4E05320
:1026380018439060704700BF00380240034A93680F
:1026480023F4604343EAC0009060704700380240BA
:1026580010B4214CA36803F00C03042B1BD0082BE7
:102668001CD01E4B03601C4A1D499468C4F3031414
:102678000C5DE34043609468C4F382240C5D23FA44
:1026880004F4846092685DF8044BC2F342328A5CB9
:10269800D340C3607047134B0360E4E76368616825
:1026A80013F4800F636818BF0E4C01F03F020CBF93
:1026B8000A49B4FBF2F1C3F3881308BFB1FBF2F186
:1026C80001FB03F2044B5B68C3F3014301335B0076
:1026D800B2FBF3F30360C6E7003802400024F400BD
:1026E8003801002000127A0000F44073B3F5407FEF
:1026F80009D108498B6820F0704223F4F81322F4BA
:10270800407213438B60034A136FC0F30B001843E6
:102718001067704700380240014B1860704700BFCF
:102728003C0E4742014B1860704700BF400E4742BD
:10273800014B1860704700BF5C01474229B9054A40
:10274800136B23EA000010637047024B1A6B1043A7
:10275800186370470038024029B9054A536B23EAC9
:10276800000050637047024B5A6B10435863704720
:102778000038024029B9054A936B23EA00009063A8
:102788007047024B9A6B10439863704700380240B9
:1027980029B9054A136C23EA000010647047024BFC
:1027A8001A6C1043186470470038024029B9054A6A
:1027B800536C23EA000050647047024B5A6C104374
:1027C800586470470038024029B9054A136923EA5A
:1027D800000010617047024B1A6910431861704776
:1027E8000038024029B9054A536923EA00005061BC
:1027F8007047024B5A6910435861704700380240CD
:1028080029B9054A936923EA000090617047024B91
:102818009A691043986170470038024029B9054AFF
:10282800136A23EA000010627047024B1A6A1043C9
:10283800186270470038024029B9054A536A23EAEA
:10284800000050627047024B5A6A10435862704742
:102858000038024029B9054A136D23EA00001065C3
:102868007047024B1A6D10431865704700380240D4
:1028780029B9054A536D23EA000050657047024B99
:102888005A6D1043586570470038024029B9054A07
:10289800936D23EA000090657047024B9A6D1043D0
:1028A800986570470038024029B9054A136E23EA33
:1028B800000010667047024B1A6E10431866704786
:1028C8000038024029B9054A536E23EA00005066D1
:1028D8007047024B5A6E10435866704700380240E2
:1028E80029B9054A137823EA000010707047024B93
:1028F8001A781043187070470D3802404309012BAD
:102908000BD0022B094B0CBF1B6F5B6F00F01F0035
:1029180023FA00F000F001007047044B1B6800F038
:102928001F0023FA00F000F0010070470038024051
:10293800024A536F43F08073536770470038024070
:10294800034BDB68184214BF01200020704700BF0A
:1029580000380240014B1870704700BF0E38024023
:1029680008B5174B984212D0164B98421BD0164BFD
:10297800984200D008BD01214FF40040FFF74EFFF8
:1029880000214FF40040BDE80840FFF747BF012190
:102998004FF48050FFF750FF00214FF48050BDE8FE
:1029A8000840FFF749BF01214FF48040FFF736FF89
:1029B80000214FF48040BDE80840FFF72FBF00BF5B
:1029C8000030014000380040003C0040F0B44A8824
:1029D8000F888D88CC880B894E893A432A43224335
:1029E8008D89CC89098A1A43324303882A432243B2
:1029F80003F4415313439BB20380838B23F4006396
:102A08001B041B0C8383F0BC01827047828B8B688C
:102A180022F47B6222F00F0212042DE9F043120C1B
:102A2800022482830484B0F81CE0A3421FFA8EFEBD
:102A380052D0304A8F889468002F0CBF4FF001099C
:102A48004FF00209240242D42A4DB1F806C0D5F845
:102A58008440D5F884206D68274EC4F38818BCF5E7
:102A6800007F05F03F04C2F30272B6FBF4F505FBE4
:102A780008F4B4FBF2F433D04FEA4912B4FBF2F293
:102A880002EB82025200B2FBF3F305339AB21B4BFE
:102A9800A3FB0223DB085A08941E03F00103FD2C54
:102AA80094BF42EA032302230C884A8889894EEAA4
:102AB800040E4EF4006E4EEA02020A434CEA030387
:102AC80092B29BB2174303848783BDE8F08394686E
:102AD80024F400049460B7E78F88B1F806C0E3E7F0
:102AE800240A04EB84046400B4FBF3F305339AB2BC
:102AF800CDE700BF0038024000127A00CDCCCCCC24
:102B0800002307220282038043808380C3800381DD
:102B180043818381C381704700230222826003803E
:102B280043808380C3808381704700BF038829B9AD
:102B380023F040031B041B0C038070479BB243F037
:102B480040030380704700BF838B29B923F4806357
:102B58001B041B0C838370479BB243F480638383FD
:102B6800704700BF038823F400631B041B0C038019
:102B780003889BB219430180704700BFB1F5804FAD
:102B8800038805D023F480431B041B0C0380704783
:102B98009BB243F480430380704700BF4FF6FF6346
:102BA8009942038804D09BB243F480730380704732
:102BB80023F480731B041B0C03807047838829B996
:102BC80023F004031B041B0C838070479BB243F063
:102BD80004038380704700BF838829B923F010035A
:102BE8001B041B0C838070479BB243F01003838047
:102BF800704700BF838B23F47B6323F00F031B0410
:102C080002221B0C83830284838B8A8970B44D88CB
:102C18000C888E889BB22B4324F4007143F4006324
:102C2800334389B2134300299BB20CBF4FF480721F
:102C380000221343838370BC704700BF808980B231
:102C4800704700BF81817047038829B923F4005376
:102C58001B041B0C038070479BB243F40053038092
:102C6800704700BF03889BB243F4805303807047CA
:102C7800012914BF008B808A80B27047008A80B215
:102C8800704700BF83889BB21AB923EA010181808B
:102C980070471943818070470123090903FA01F13C
:102CA800838889B29BB21AB923EA010181807047EF
:102CB80019438180704700BF0389194214BF01205E
:102CC80000207047C94389B20181704710B48488D5
:102CD8000389012201F00F009BB202FA00F01840AC
:102CE80006D00909A4B28A40144214BF012000206A
:102CF8005DF8044B704700BF01F00F01012303FA90
:102D080001F1C94389B20181704700BF08B52B4B57
:102D1800984219D02A4B984220D02A4B984229D061
:102D2800294B984232D0294B98423BD0284B9842A5
:102D380000D008BD01212020FFF77EFD00212020C2
:102D4800BDE80840FFF778BD01211020FFF774FDAA
:102D580000211020BDE80840FFF76EBD01214FF4A7
:102D68000030FFF75BFD00214FF40030BDE808405C
:102D7800FFF754BD01214FF48020FFF74FFD0021DC
:102D88004FF48020BDE80840FFF748BD01214FF40B
:102D98000020FFF743FD00214FF40020BDE8084064
:102DA800FFF73CBD01214FF48010FFF737FD0021EC
:102DB8004FF48010BDE80840FFF730BD0010014017
:102DC8000044004000480040004C004000500040D3
:102DD80000140140028A0B89F0B592B2CF888E8820
:102DE800044622F440523A4348890D468989228292
:102DF800A289334392B2034322F4B05222F00C0268
:102E08009BB21343A381A38A9BB223F440730B4361
:102E180085B0A3826846FFF71BFC1D4B9C4228D057
:102E280003F580639C4224D0029AA389A18913F4F4
:102E3800004F2B6802EB820214BF5B009B0002EB81
:102E48008202B2FBF3F0134AA2FB00356D0964233A
:102E5800090405FB13034FEA05150CD41B01323393
:102E6800A2FB0323C3F343132B439BB2238105B077
:102E7800F0BD039AD9E7D9003231A2FB0131C1F381
:102E8800421242EA05039BB2238105B0F0BD00BFA0
:102E9800001001401F85EB5100234FF416510C22FE
:102EA800016042818380C38003818381704700BFB2
:102EB80030B44A880D888C88038AC9882A432243FB
:102EC8000A439BB292B223F470631343038230BC6B
:102ED800704700BF0023038043808380C38070470E
:102EE800838929B923F400531B041B0C8381704781
:102EF8009BB243F400538381704700BF038B03F4F4
:102F08007F430383038B9BB219430183704700BF40
:102F1800838919B9C3F30E03838170476FEA43436A
:102F28006FEA53439BB28381704700BF838A29B9F4
:102F380023F400631B041B0C838270479BB243F489
:102F480000638382704700BFC1F308018180704726
:102F58008088C0F308007047038A23F00F031B041E
:102F68001B0C0382038A9BB219430182704700BF7E
:102F7800838929B923F002031B041B0C8381704742
:102F88009BB243F002038381704700BF838923F417
:102F980000631B041B0C838183899BB219438181C5
:102FA800704700BF038A23F020031B041B0C038215
:102FB800038A9BB219430182704700BF038A29B96B
:102FC80023F480431B041B0C038270479BB243F419
:102FD80080430382704700BF83899BB243F001039B
:102FE80083817047838A29B923F008031B041B0CCB
:102FF800838270479BB243F008038382704700BF07
:10300800038BDBB20383038B9BB243EA0121018369
:10301800704700BF838A29B923F020031B041B0CC7
:10302800838270479BB243F020038382704700BFBE
:10303800838A29B923F010031B041B0C8382704771
:103048009BB243F010038382704700BF838A23F04A
:1030580004031B041B0C8382838A9BB2194381825D
:10306800704700BF838A29B923F002031B041B0C95
:10307800838270479BB243F002038382704700BF8C
:10308800838A9BB21AB923EA0101818270471943E6
:103098008182704710B401F01F04C1F3421101236B
:1030A800012903FA04F311D002290CBF103014309F
:1030B80032B902685DF8044B22EA030303607047E3
:1030C80002685DF8044B1343036070470C30EFE768
:1030D8000388194214BF012000207047C94389B2F0
:1030E80001807047C1F3421210B4012301F01F049C
:1030F800012A03FA04F317D0022A0CBF028A828A33
:1031080092B21340028892B253B10123090A03FA1A
:1031180001F10A4214BF184600205DF8044B7047BD
:1031280018465DF8044B7047828992B21340E9E76C
:10313800090A012303FA01F1C94389B201807047E2
:1031480008B5FEF7B9F9FEF705FAFDF781F8FDF7BE
:10315800CBFE55214BF680320420FDF7B1FC4FF42D
:1031680000710548FDF768FCFDF700F90028FBD061
:10317800FDF712F9F8E700BF188C002008B5002108
:10318800044600F08BF8044B1868C36B03B19847EA
:10319800204600F0E7F900BF4C35000870B50F4E27
:1031A8000F4D761BB61018BF002405D0013455F812
:1031B800043B9847A642F9D10A4E0B4D761B00F006
:1031C800C5F9B61018BF002406D0013455F8043BE1
:1031D8009847A642F9D170BD70BD00BF743500088C
:1031E800743500087C3500087435000870B484070D
:1031F80046D0541E002A41D0CDB2034602E0621EDA
:10320800E4B3144603F8015B9A07F8D1032C2ED9CE
:10321800CDB245EA05250F2C45EA054519D903F134
:1032280010022646103E0F2E42F8105C42F80C5C45
:1032380042F8085C42F8045C02F11002F2D8A4F1EA
:10324800100222F00F0204F00F041032032C134472
:103258000DD91E462246043A032A46F8045BFAD8DA
:10326800221F22F003020432134404F003042CB199
:10327800C9B21C4403F8011BA342FBD170BC7047C0
:1032880014460346C2E700BF024B13B1024800F0E0
:1032980071B8704700000000893300082DE9F04F2D
:1032A800324B85B01B68029303F5A47301900E4658
:1032B8000393029BD3F848713FB3DDF80CA04FF09D
:1032C8000109D3467C68651E0ED4013407EB8404DB
:1032D8004FF00008E6B1D4F800319E4218D0013D05
:1032E8006B1CA4F10404F5D1214B73B17B68002B4E
:1032F80036D13B68002B34D03846CBF80030AFF3DA
:103308000080DBF80070002FDCD105B0BDE8F08F3D
:103318007B682268013BAB420CBF7D60C4F800802B
:10332800002ADCD0D7F88811D7F804A009FA05F3E9
:103338000B420FD0D7F88C110B420DD1D4F8801066
:10334800019890477B685345B3D1DBF80030BB4206
:10335800C5D0AEE79047F5E7D4F880009047F1E78D
:103368003B68BB461F46002FACD1CEE74C35000862
:1033780000000000002301461A46184600F014B861
:1033880038B5074D074C2C1BA41005D0013C55F847
:10339800043D9847002CF9D1BDE8384000F0DCB86E
:1033A800803500087C3500082DE9F047254C256854
:1033B800D5F848410646884692469946C4B360689F
:1033C8001F2817DC431C76B104EB80050122C5F8E1
:1033D80088A0D4F8881182401143022EC4F88811BD
:1033E800C5F808911ED00230636044F820800020A0
:1033F800BDE8F087144B03B34FF4C870AFF30080F7
:103408000446D0B1D5F84831002780E88800C5F8CF
:10341800484138460123C4F88871C4F88C71002EDD
:10342800E1D0D1E7D4F88C110A43C4F88C21DAE74B
:1034380005F5A674C5F84841C1E74FF0FF30BDE86F
:10344800F08700BF4C35000800000000FEE700BF11
:10345800F4FF070000000C00130018001C001F00F8
:1034680024000000000000001A00000033000000E3
:1034780066000000B60000004401000000020000E1
:10348800D5020000000400008C0095009D00A700F4
:10349800B100BB00C600D200DF00EC00FA00090151
:1034A800180129013B014E01610176018D01A4013A
:1034B800BD01D801F40111023102520276029B02C9
:1034C800C302ED021A0349037A03B003E803230495
:1034D8006204A404EC0436058605D9053306910672
:1034E800F4065F07CF074508C3084809D7096C0ADF
:1034F8000B0BB20B650C210DE80DBD0E9C0F88104F
:1035080084118E12AA13D41410165D17C2183A1A11
:10351800C51B6D1D291FFF20F3220325362784298B
:10352800F62B882E49312D343537753ADB3D7241FB
:1035380050455A49944DFF51B856A25BCC600000E3
:10354800430000004801002000000000F8B500BF5B
:10355800F8BC08BC9E467047F8B500BFF8BC08BC6C
:043568009E467047C4
:08356C0078CCFF7F0100000094
:0835740091320008AD010008CE
:04357C0089010008B9
:103580000000000040000000FFFF000000000028D5
:10359000B86002400000002400C0120001000000DA
:1035A000000020000C3C00402F00000000004020E4
:1035B0000000002200000021FFFF00001F000000AB
:1035C000000000001F1F0000000000001F1F1F0060
:1035D000000000001F1F1F1F000000001F1F1F1FF3
:1035E0001F0000001F1F1F1F1F1F00001F1F1F1F86
:1035F0001F1F1F001F1F1F1F1F1F1F1F20202020F6
:103600000020202001202020022020200320202034
:103610000420202005202020062020200720202014
:103620000700202007012020070220200703202078
:103630000704202007052020070620200707202058
:1036400007070020070701200707022007070320BC
:10365000070704200707052007070620070707209C
:103660000707070007070701070707020707070300
:1036700007070704070707050707070607070707E0
:1036800020202020032020200720202007032020A6
:10369000070720200707032007070720070707035E
:1036A00007070707000000000000000001020304F4
:1036B00006070809007A030A00000000010203045B
:1036C000010203040607080900000000340400207A
:1036D0009C04002004050020000000000000000001
:1036E00000000000000000000000000000000000DA
:1036F0000000000000000000000000004835000845
:1037000000000000000000000000000000000000B9
:1037100000000000000000000000000000000000A9
:103720000000000000000000000000000000000099
:103730000000000000000000000000000000000089
:103740000000000000000000000000000000000079
:103750000000000000000000000000000000000069
:103760000000000000000000000000000000000059
:1037700001000000000000000E33CDAB34126DE6F6
:10378000ECDE05000B00000000000000000000005F
:103790000000000000000000000000000000000029
:1037A0000000000000000000000000000000000019
:1037B0000000000000000000000000000000000009
:1037C00000000000000000000000000000000000F9
:043AF0004801002069
:043AF40000000000CE
:103AF80000000000000000000000000000000000BE
:103B080000000000000000000000000000000000AD
:103B1800000000000000000000000000000000009D
:103B2800000000000000000000000000000000008D
:04000005080017C117
:00000001FF
